:020000040800F2
:10000000C004002005010008A7140008B713000869
:10001000A51400084D030008A51A00080000000000
:100020000000000000000000000000007D15000836
:100030000904000800000000A91400083D1600088B
:100040001F0100081F0100081F0100081F01000810
:100050001F0100081F0100081F0100081F01000800
:100060001F0100081F0100081F0100081F010008F0
:100070001F0100081F0100081F0100081F010008E0
:100080001F0100081F0100081F0100081F010008D0
:100090001F0100081F0100081F0100081F010008C0
:1000A00091160008C5160008B9160008AD1600081C
:1000B0001F0100081F0100081F0100081F010008A0
:1000C0001F0100081F0100081F0100081F01000890
:1000D0001F010008B91700081F0100081F010008D0
:1000E0001F0100081F0100081F010008DFF810D0E1
:1000F00000F02CF800480047A11B0008AFF3008077
:10010000C00400200648804706480047FEE7FEE797
:10011000FEE7FEE7FEE7FEE7FEE7FEE7FEE7FEE7B7
:100120008D160008ED000008D2B201E000F8012BA6
:10013000491EFBD270470022F6E710B513460A4667
:1001400004461946FFF7F0FF204610BD064C074D48
:1001500006E0E06840F0010394E807009847103497
:10016000AC42F6D3FFF7C6FF9C1C0008BC1C00087D
:1001700070B5A02001F04EFA0F21022001F094FC8E
:10018000022001F093F910F00F0FF9D1222001F0B5
:100190008DF9C0F30015232001F088F9252001F026
:1001A00085F9C0F3C004242001F080F9C0F30016E3
:1001B0001A2001F07BF91B2001F078F92C4334431D
:1001C00000D0FEE770BD000070B50A4D0124204646
:1001D000295D01F069FC641CE4B2042CF7D9072402
:1001E0002046295D01F060FC641CE4B2332CF7D991
:1001F00070BD0000501C00080021084601F054BCEE
:1002000070B51649164E452408780022401C087027
:100210000821304600F04FFA204600F0C9F8114D91
:10022000002400BF00F094F82855641CE4B2112C9F
:10023000F8D301220821304600F03DFAC02001F039
:10024000E9F900240748291903230122143001F099
:1002500058F8641CE4B2112CF4D370BD01000020E6
:10026000000C01406400002001460F2001F01CBC7E
:1002700070B51F4D062400220821284600F01BFA05
:10028000142000F0C2F8204600F092F8194E002425
:10029000305D00F08DF8641CE4B2042CF8D3012228
:1002A0000821284600F007FA4624142000F0ADF893
:1002B00000220821284600F0FEF9142000F0A5F8DD
:1002C000204600F075F800F043F80A4C641F607097
:1002D00000F03EF8A07000F03BF8E07000F038F855
:1002E00020712846BDE870400122082100F0E3B9E2
:1002F000000C01400600002010B5134C012208211B
:10030000204600F0D8F900220121204600F0D3F960
:1003100001220221204600F0CEF9FFF76DFFFFF722
:10032000A7FFFFF751FFFFF723FFB02001F072F99D
:100330009C20FFF799FFC02001F06CF9BDE8104048
:10034000142000F06CB80000000C0140FEE7000033
:100350002DE9F04101F03EF90024144E012701225D
:100360001146304600F0A7F9012000F04EF80221B6
:10037000304600F09BF910B107EB450000E0680043
:10038000C5B2012000F041F800220121304600F002
:1003900092F9012000F039F8641CE4B2082CDED395
:1003A00001F028F92846BDE8F0810000000C01406A
:1003B00070B5054600BF00BF0024124E00BF2806DE
:1003C00001D5012200E000220221304600F073F93D
:1003D000012000F01AF801221146304600F06BF9B6
:1003E000012000F012F800220121304600F063F9EC
:1003F000012000F00AF86806641C050EE4B2082C1F
:10040000DCD370BD000C0140704704E00021491CA2
:10041000C9B21729FBD3401EC0B2F7D2704704E01F
:100420000021491CC9B2FA29FBD3401EC0B2F7D241
:100430007047000010B590F821100024022903D065
:100440000421816301243DE001680A6822F00E0264
:100450000A6001680A6822F001020A601A4A01680B
:10046000914201D1012121E0174A1432914201D178
:1004700010211BE0144A2832914201D1891515E060
:10048000114A3C32914201D189140FE00E4A503298
:10049000914202D14FF4803108E00B4A643291421C
:1004A00002D14FF4801101E04FF08071064A083A02
:1004B0005160012180F82110002180F82010416B4B
:1004C00001B18847204610BD080002402DE9F84FD1
:1004D000DFF8B891002409F1040A0AF1040B23465D
:1004E0000F270BF1040EC9E00125A5402A40AA42BE
:1004F0007DD1674ED1F804C0ACEB0608B44532D0CC
:1005000014DCBCF1030F3AD009DCBCF1000F2AD097
:10051000BCF1010F1CD0BCF1020F31D11DE0BCF1C8
:10052000110F17D0BCF1120F2AD119E0B8F5881FAE
:1005300019D006DCB8F5803F15D0B8F5801F1FD163
:1005400011E0B8F5001F0ED0B8F5041F18D10AE06D
:10055000CB6815E0CB681B1D12E0CB6808330FE0B9
:10056000CB680C330CE08B682BB1012B4FF00803E8
:1005700003D0456104E0042302E0056100E00023AC
:10058000FF2A01D8064601E000F104064FEA84057F
:1005900001D9A5F12005D6F8008007FA05FC28EA64
:1005A0000C0803FA05F548EA0508C6F800804D680E
:1005B000ED0062D5374DAE6946F00106AE61AD691A
:1005C00024F0030605F001050095334D06EB050CFC
:1005D000DCF80850A607360F07FA06F825EA0805E2
:1005E000DFF8B880404503D14FF0000817E044E041
:1005F000DFF8AC80404502D14FF001080FE0DFF892
:10060000A480404502D14FF0020808E0DFF898804E
:10061000404502D14FF0030801E04FF0040808FA0A
:1006200006F848EA0508CCF808804D68D9F800605B
:10063000ED034D4601D5164300E096432E604D680C
:10064000DAF80060AD03554601D5164300E0964345
:100650002E604D68DBF80060ED025D4601D5164363
:1006600000E096432E604D68DEF80060AD027546EE
:1006700001D5164300E096432E60641C0D682A469F
:10068000E5407FF431AFBDE8F88F00000004014081
:10069000000011100010024000000140000801405D
:1006A000000C014000100140001401408068084027
:1006B00000D0012070470AB1016170470904FBE7CF
:1006C00001488068704700000C00002002488168E3
:1006D00002781144816070470C000020074810B573
:1006E000016841F010010160032000F075F800205E
:1006F00000F006F800F024F8002010BD00200240B1
:1007000070B50D4D04464FF47A712878B1FBF0F0C6
:100710000A490968B1FBF0F000F0ECFA48B9102C76
:1007200007D200222146501E00F036F800206C60EF
:1007300070BD012070BD00000C00002018000020DA
:100740000C4808B5816941F001018161816901F0BE
:1007500001010091C16941F08051C161C06900F09F
:10076000805000900448416821F0E06141F0007140
:10077000416008BD0010024000000140002809DB74
:1007800000F01F02012191404009800000F1E020AB
:10079000C0F8001170470000F0B40E4B1B680C4607
:1007A000C3F30223C3F10705042D00D90425191D45
:1007B000072901D2002300E0DB1E012606FA05F11D
:1007C000491E214099409E40761E16403143F0BCA0
:1007D00001F0C6B90CED00E0064900F00702086818
:1007E0004FF6FF03184040EA0220034A1043086016
:1007F000704700000CED00E00000FA052DE9F0471D
:100800000F46050061D0434E306800F00700B84243
:1008100009D2306820F0070038433060306800F0BB
:100820000700B84251D128683B4C810712D54007D8
:1008300003D5606840F4E06060602878000703D565
:10084000606840F4605060606068A96820F0F00063
:10085000084360602878C00728D06868012810D055
:100860002168022810D0890700292EDA616821F05A
:10087000030101436160FFF723FF804641F288399D
:100880000DE021688903EFE78901EDE7FFF718FF25
:10089000A0EB0801494502D90320BDE8F087606854
:1008A000696800F00C00B0EB810FEFD1306800F008
:1008B0000700B8420BD9306820F007003843306099
:1008C000306800F00700B84201D00120E5E7287841
:1008D000400705D56068E96820F4E060084360607F
:1008E0002878000706D56068296920F4605040EA3E
:1008F000C100606000F038F86168084AC1F3031174
:10090000515CC8400649086006480068FFF7F8FED9
:100910000020C2E70020024000100240841C0008B2
:1009200018000020100000200448054900684968AC
:10093000044AC1F30221515CC840704718000020EE
:1009400000100240941C00080448054900684968EA
:10095000044AC1F3C221515CC8407047180000200E
:1009600000100240941C000812A185B00FC98DE848
:100970000F0014A0144A006804905168134801F055
:100980000C03042B10D0082B0ED1C1F38343C903F1
:100990001DF803000AD5516804AAC1F34041515C17
:1009A0000A4A5043B0FBF1F005B07047084948438C
:1009B000FAE7000002030405060708090A0B0C0DFC
:1009C0000E0F1010010200000010024000127A0009
:1009D00000093D002DE9F84F040070D02078C04D8B
:1009E000C00749D06868C0F38100012807D0686853
:1009F000C0F38100022809D16868C00306D52868C1
:100A0000800339D560680028E7D035E06068B0F52C
:100A1000803F0BD010B1B0F5A02F11D0286820F482
:100A200080302860286820F4802002E0286840F4A4
:100A300080302860606890B1FFF742FE06460AE009
:100A4000286840F480202860F0E700BFFFF738FEF8
:100A5000801B642873D828688003F7D50CE0FFF763
:100A60002FFE064605E000BFFFF72AFE801B642824
:100A7000F0D828688003F7D420789A4E80074FF08A
:100A800001094FF0000839D5686810F00C0F07D045
:100A90006868C0F38100022809D16868C00306D4E1
:100AA0002868800714D52069012808D110E0206942
:100AB000B0B1C6F80090FFF703FE074605E00AE173
:100AC000FFF7FEFDC01B0228C4D828688007F7D5B1
:100AD0002868616920F0F80040EAC10028600DE054
:100AE000C6F80080FFF7ECFD074604E0FFF7E8FDDD
:100AF000C01B022823D828688007F7D42078000775
:100B00002CD57948A169D9B1C0F80090FFF7D8FD7C
:100B1000074604E0FFF7D4FDC01B02280FD8686A1F
:100B20008007F7D571484FF4FA510068B0FBF1F037
:100B3000009000BF0098411E0091FAD20EE080E0C4
:100B4000C0F80080FFF7BCFD074604E0FFF7B8FDE2
:100B5000C01B022875D8686A8007F7D42078400740
:100B600060D5E8690027C00008D4E86940F08050EB
:100B7000E861E869012700F0805000905C48016856
:100B8000C90513D40168834641F480710160FFF701
:100B900097FD824606E000BFFFF792FDA0EB0A003A
:100BA00064284ED8DBF80000C005F5D5E0680128C0
:100BB0000AD008B1052813D0286A20F00100286265
:100BC000286A20F0040002E0286A40F00100286250
:100BD000E06841F2883B98B1FFF772FD82460BE076
:100BE000286A40F004002862EEE700BFFFF768FDC6
:100BF000A0EB0A0159455AD8286A8007F6D50CE0BF
:100C0000FFF75EFD824605E0FFF75AFDA0EB0A0103
:100C100059454CD8286A8007F6D41FB1E86920F0FE
:100C20008050E861E06988B36968C1F381010229F5
:100C300044D00228C6F8608004D0FFF741FD044686
:100C400038E034E0FFF73CFD074604E0FFF738FDED
:100C5000C01B02282BD828688001F7D4206AB0F581
:100C6000803F05D16868A16820F4003008436860BF
:100C7000D4E908010843696821F4741108436860E5
:100C8000C6F86090FFF71CFD044606E025E000BFB3
:100C9000FFF716FD001B022809D828688001F7D548
:100CA0001BE000BFFFF70CFD001B022802D9032048
:100CB000BDE8F88F28688001F4D40EE00128F7D051
:100CC0006868226A00F48031914204D1616A00F4BC
:100CD0007010884201D00120EAE70020E8E7000018
:100CE00000100240000042428004424218000020EE
:100CF0000070004010B5401EB0F1807F01D301208C
:100D000010BD4FF0E02460610F21601700F028FF54
:100D10000020A06107202061002010BD70477047AF
:100D200070B590F83C20012A26D0012480F83C4080
:100D3000022280F83D2003685A689D6822F0700600
:100D40000A6832435A600D4B02689A4208D0B2F1E9
:100D5000804F05D00A4B9A4202D00A4B9A4204D1E6
:100D6000496825F080031943916080F83D400021D7
:100D700080F83C10084670BD022070BD002C014078
:100D8000000400400008004010B5040003D094F8AF
:100D90003D0010B107E0012010BD002084F83C00A8
:100DA000204600F01FF8022084F83D00211D206835
:100DB00000F096FC012084F8460084F83E0084F898
:100DC0003F0084F8400084F8410084F8420084F831
:100DD000430084F8440084F8450084F83D00002076
:100DE00010BD000008B500680649884208D10648D1
:100DF000816941F400618161806900F400600090C4
:100E000008BD0000002C01400010024090F83D1089
:100E1000012901D001207047022180F83D100168AE
:100E2000CA6842F00102CA6000680B49884208D0D3
:100E3000B0F1804F05D00949884202D00849884264
:100E400004D1816801F00701062903D0016841F04F
:100E50000101016000207047002C014000040040A7
:100E60000008004070B5044690F83C00012817D0F7
:100E7000012584F83C50022084F83D0020688268F7
:100E800022F0770222F47F4282600868502830D036
:100E90000DDC20284DD005DC98B310283BD148E06C
:100EA000022070BD302844D0402834D139E0602879
:100EB00028D0702806D0B0F5805F2CD0B0F5005F48
:100EC00029D10AE0CB68D1E90121206800F03EFC7D
:100ED0002068816841F0770109E0CB68D1E9012100
:100EE000206800F033FC2068816841F48041816013
:100EF00011E0CA684968206800F03AFC5021206877
:100F000007E016E0CA684968206800F042FC6021EA
:100F1000206800F025FC84F83D50002084F83C0057
:100F200070BDCA684968206800F022FC4021206832
:100F3000EFE7226801461046EBE7704770B50446BC
:100F4000006801694FF00005C943890715D4C168DD
:100F5000C943890711D4E91E016101202077206867
:100F600080698007204602D0FFF7E7FF04E000F029
:100F700098F8204600F096F8257720680169C94363
:100F8000490717D4C168C943490713D46FF0040156
:100F90000161022020772068806910F4407F20469C
:100FA00002D0FFF7CAFF04E000F07BF8204600F013
:100FB00079F8257720680169C943090716D4C16803
:100FC000C943090712D46FF008010161042020779A
:100FD0002068C0698007204602D0FFF7AEFF04E01A
:100FE00000F05FF8204600F05DF825772068016981
:100FF000C943C90617D4C168C943C90613D46FF0E1
:1010000010010161082020772068C06910F4407F3A
:10101000204602D0FFF791FF04E000F042F820469E
:1010200000F040F8257720680169C943C90708D155
:10103000C168C943C90704D1891E0161204600F077
:1010400032F820680169C943090609D4C168C94357
:10105000090605D46FF0800101612046FFF75EFEAE
:1010600020680169C943490609D4C168C9434906D2
:1010700005D46FF040010161204600F015F82068AA
:101080000169C94389060BD4C168C943890607D4DD
:101090006FF0200101612046BDE87040FFF73FBEC0
:1010A00070BD7047704770477047704770B50268F1
:1010B00004461068D168536910F00F0F56D003F042
:1010C000010501F490762E436AD0C20705D0CA0507
:1010D00003D5226C42F001022264420705D5DA07EB
:1010E00003D0226C42F002022264820705D5DA079F
:1010F00003D0226C42F004022264020707D501F0FB
:1011000020022A4303D0226C42F008022264226C9F
:10111000002A3ED0800608D5880606D594F83D0002
:10112000222820462FD000F015FC20684069216C51
:10113000C0F38010090700D460B3204600F04AFBDA
:1011400020684169490621D5416921F0400141618A
:10115000A06BD8B138494163A06BFFF76BF9002849
:1011600017D0A06B416BBDE870400847830617D5C8
:101170008B0615D594F83D00222819D12046BDE8EC
:10118000704000F035BB00F033FBCEE72046FFF7A0
:101190008CFF70BD2046FFF788FF0020206470BDE3
:1011A000030634D50B0632D594F83D00122804D03E
:1011B0002046BDE8704000F0CDBB94F83D001228F9
:1011C000EDD1A068B0F5805F01D12069B0B1606A4F
:1011D000411C6162216800784860608D401E0004F7
:1011E000000C6085DBD12068C16821F08001C160FE
:1011F0002068C16841F04001C16070BD606A00882C
:10120000C0F308005060606A801C6062E5E7400639
:10121000F3D54806F1D5D168204621F04001D160D0
:1012200021684A6922F001024A61012184F83D10D7
:1012300000F0BFF870BD0000C517000870B50400CD
:1012400004D094F83D00002510B106E0012070BDE7
:1012500084F83C50204600F01BF8022084F83D0042
:10126000204600F00DFB2068016921F480410161F6
:101270002068416921F02A0141612068C16841F478
:101280000051C1602564012084F83D00002070BD3C
:1012900030B585B000240094019402940394006852
:1012A0001449884224D11448816941F48041816104
:1012B000816901F480410491816941F004018161F7
:1012C00080690E4D00F0040004904FF440700090CF
:1012D000022001900320039069462846FFF7F6F8A4
:1012E0002815CDE90004694628460294FFF7EEF878
:1012F00005B030BD00380140001002400008014038
:1013000070472DE9F84F044690F83D001F461646F9
:101310000D4601284BD1CDB1C6B194F83C0001284F
:1013200045D04FF0010884F83C804FF00009C4F824
:101330004090122084F83D00FFF7C2F926858246CE
:101340006685A068B0F5805F03D004E00120BDE8A9
:10135000F88F206910B12E4600250EE000260CE023
:101360008021204600F064FBA0B9AEB116F8010B55
:1013700021684860608D401E6085608D53464FF047
:10138000000200970028EBD14FF04001204600F00A
:101390004FFB30B10320DAE735F8020BC0F3080049
:1013A000E6E784F83D8084F83C900020CFE70220F7
:1013B000CDE770477047FEE72DE9F04186B0002485
:1013C0001F480094019402940394816941F0040140
:1013D0008161816901F004010491816941F0080192
:1013E00081618069174F00F00800049000220221FB
:1013F0003846FFF760F9DFF8508000220B214046A5
:10140000FFF759F902250126CDE90056694638460D
:10141000CDE90245FFF75AF80B20CDE900066946F1
:101420004046CDE90245FFF751F80420CDE900041C
:10143000694640460294FFF749F806B0BDE8F081DE
:101440000010024000080140000C014010B586B0B9
:1014500000241348009401940294039404940F49C7
:10146000059401603F21C0E9011440F2E731C0E971
:1014700003148021C0E90541FFF786FC4FF480503A
:10148000009069460648FFF7EDFC049404A904485F
:101490000594FFF745FC06B010BD0000002C01408C
:1014A0001C000020FEE77047704700002DE9F04166
:1014B000064600F09FF81420FEF7A7FF2E4C0022EE
:1014C00008212046FFF7F7F81420FEF79EFF46F0AC
:1014D00040070026380601D5012200E00022022143
:1014E0002046FFF7E8F81420FEF78FFF012211468F
:1014F0002046FFF7E0F81420FEF787FF00220121C5
:101500002046FFF7D8F81420FEF77FFF7806761CF8
:10151000070EF6B2082EDDD300BF00F05BF800BF67
:1015200000BF00BF0026012702212046FFF7BEF8BA
:1015300010B107EB450000E06800C5B2012211467A
:101540002046FFF7B8F81420FEF75FFF00220121C4
:101550002046FFF7B0F81420FEF757FF761CF6B2CE
:10156000082EE1D3012208212046FFF7A4F800F05D
:1015700041F82846BDE8F081000C014070470000AA
:1015800070B5134E05460024280601D5012200E05F
:10159000002202213046FFF78EF80120FEF735FFCA
:1015A000012211463046FFF786F80120FEF72DFF95
:1015B000002201213046FFF77EF80120FEF725FFCB
:1015C0006806641C050EE4B2042CDDD370BD000077
:1015D000000C01401FB500200190039002200090F4
:1015E0000120029069460248FEF770FF1FBD00000F
:1015F000000C01401FB50020029002200121CDE91E
:101600000001039069460248FEF760FF1FBD00001D
:10161000000C014070B5084C054600220821204608
:10162000FFF749F82846FFF7ABFF2046BDE87040BA
:1016300001220821FFF73FB8000C0140FFF746B830
:1016400030B58FB028216846FEF775FD14210AA831
:10165000FEF771FD022401200490009410200590F3
:1016600000254FF46010CDE9085007946846FFF755
:10167000B1F90AA90F2081E831006002CDE90D051A
:1016800002210AA8FFF7BAF80FB030BD704700007A
:1016900010B50448FFF752FC03480178491C01705B
:1016A00010BD00001C000020000000200148FFF7D2
:1016B00045BC00001C0000200148FFF73FBC0000B3
:1016C0001C00002010B50448FFF738FC03480178DF
:1016D000491C017010BD00001C000020000000200B
:1016E000F0B50268164B174C174D4FF080479842E3
:1016F00005D0B84203D0A04201D0A84203D122F0C5
:1017000070064A683243984205D0B84203D0A042DE
:1017100001D0A84203D122F44074CA6822434C6924
:1017200022F08002224302608A68C2620A688262F2
:10173000984201D10969016301214161F0BD0000B6
:10174000002C0140000400400008004010B58468EF
:1017500042EA032224F47F440A432243826010BDFC
:10176000826822F070020A4342F0070181607047EC
:1017700010B5036A046A24F001040462846924F049
:10178000F00444EA021423F00A020A43846102626C
:1017900010BD10B5036A23F0100303628369046A65
:1017A00023F4704343EA023224F0A00343EA011118
:1017B0008261016210BD00000148FFF777BC0000A4
:1017C0007800002010B5406A002141864185FFF76E
:1017D0006CFC10BD0168CA6822F49072CA6001688E
:1017E0004A6922F001024A61012180F83D107047E8
:1017F00010B590F83D10222901D0022010BD82685A
:101800004FF480539A4201D1016921B1C16A9A42D1
:101810001ED04AB10AE00268C16A5268C2F30802E7
:101820000A80C16A891C08E002698AB102685268AC
:1018300002F07F020A70C16A491CC162418E491ED2
:101840004186418E39B10068FF214160002010BD02
:1018500002685268EEE70168CA6822F02002CA6096
:101860000168CA6822F48072CA6001684A6922F07D
:1018700001024A61012180F83D10FFF741FDE5E7D3
:101880002DE9F04104460068C16821F00C01C160F7
:1018900020680169D4E906231A43E568236A21F424
:1018A0007C512B431A430A4342F4006101612268D0
:1018B000D16841F20C6081432369A06818436369D1
:1018C0000B431843D0602068416921F440714161A5
:1018D0001F49206864253226884202D1FFF734F878
:1018E00001E0FFF721F800EBC00101EB0011606897
:1018F0006FF0180C8000B1FBF0F3B3FBF5F3B1FB14
:10190000F0F7B1FBF0F203FB0CF307EB830306EBFC
:101910000313B2FBF5F2B3FBF5F3120103F0F0038E
:1019200002EB4302B1FBF0F3B1FBF0F0B0FBF5F0DA
:1019300000FB0CF003EB800006EB0010B0FBF5F0B1
:10194000216800F00F0010448860BDE8F0810000BD
:101950000038014010B590F83D10322901D0022026
:1019600010BD418D4FF4805411B301680A68D24311
:1019700012061DD48268A24201D1026952B1426AA4
:10198000531C436212784A60418D491E4185418D46
:1019900049B10DE0426A1288C2F308024A60416A06
:1019A000891C4162F0E70168CA6822F08002CA60BF
:1019B000418E11B301680A68D24392061DD4836830
:1019C000A34201D1026922B1C26AA34218D043B135
:1019D00009E0C26A4968C1F308011180C16A891C23
:1019E00007E0036963B1496801F07F011170C16AC2
:1019F000491CC162418E491E4186418E11B115E0DC
:101A00004968F3E70168CA6822F02002CA600168E9
:101A1000CA6822F48072CA6001684A6922F0010231
:101A20004A61012180F83D10FFF7C4FC002010BD81
:101A30002DE9F041984617460E460446069D25E0DE
:101A4000681C23D02DB1FEF73BFEA0EB0800A84296
:101A50001CD92068C16821F08001C1602068C1687C
:101A600021F02001C1602068C16821F48071C1604B
:101A70002068416921F001014161012084F83D00A5
:101A8000002084F83C000320BDE8F0812068006855
:101A900036EA000004D00020B842D1D00020F3E79D
:101AA0000120F9E7FEE700002DE9F0412B4C0E463E
:101AB0000746002208212046FEF7FDFD1420FEF710
:101AC000A4FC0025380601D5012200E000220221F5
:101AD0002046FEF7F0FD1420FEF797FC0122114688
:101AE0002046FEF7E8FD1420FEF78FFC00220121BE
:101AF0002046FEF7E0FD1420FEF787FC78066D1CFB
:101B0000070EEDB2082DDDD30025300601D50122E8
:101B100000E0002202212046FEF7CDFD1420FEF752
:101B200074FC012211462046FEF7C5FD1420FEF785
:101B30006CFC002201212046FEF7BDFD1420FEF7BB
:101B400064FC70066D1C060EEDB2082DDDD3204638
:101B5000BDE8F04101220821FEF7ADBD000C0140B7
:101B60000907090E002804DB00F1E02080F80014CA
:101B7000704700F00F0000F1E02080F8141D70475E
:101B800002E008C8121F08C1002AFAD17047704746
:101B9000002001E001C1121F002AFBD170470000A4
:101BA000FEF79CFDFFF74CFDFFF706FCFFF74EFC30
:101BB000244823490C2201604FF4E12141600021B7
:101BC0008160C160C0E904128161C1610162FFF7F7
:101BD00035FB002211461920FEF7DEFD1920FEF725
:101BE000CDFD002211461820FEF7D6FD1820FEF785
:101BF000C5FD002211461A20FEF7CEFD1A20FEF781
:101C0000BDFD002211461B20FEF7C6FD1B20FEF77E
:101C1000B5FD002211462520FEF7BEFD2520FEF76A
:101C2000ADFD0948FFF7F2F8FEF766FB074C04210B
:101C30002046FEF73BFD0028F9D1FEF7E1FAF6E772
:101C400000380140780000201C000020000C0140FA
:101C5000006200104000000000000001010500507B
:101C60009E4B0002162B1240628080000A32030550
:101C7000120000000000237017478057014519002B
:101C8000010F007F000000000000000001020304BB
:101C9000060708090000000001020304BC1C00083C
:101CA000000000201C000000801B0008D81C000859
:101CB0001C000020A4040000901B0008000000008D
:101CC0000000AABBCCDD00000100000010000000F5
:081CD000000000000024F400F4
:04000005080000ED02
:00000001FF
